:100000000C9492010C94C3010C94C3010C94C30191
:100010000C94C3010C94C3010C94C3010C94C30150
:100020000C94C3010C94C3010C94C3010C94C30140
:100030000C94C3010C94C3010C94C3010C94C30130
:100040000C94C3010C94C3010C94C3010C94C30120
:100050000C94C3010C94C3010C94C3010C941115AE
:100060000C94C3010C94E80F0C94D8100C94C301A9
:100070000C94C3010C94C3010C94C3010C94C301F0
:100080000C94C3010C94C3010C94C3010C94C301E0
:100090000C941C100C9417110C94C3010C94C30104
:1000A0000C94C3010C94C3010C94C3010C94C301C0
:1000B0000C94C3010C94C3010C94C3010C94C301B0
:1000C0000C94C3010C94C3010C94C3010C94501004
:1000D0000C9456110C94C3010C9484100C9495113B
:1000E0000C94C3016A146D1460146414A414711484
:1000F00075147B147F14831489148D149114A41423
:1001000097149B149F140000090A02080B0C0D079A
:1001100006030401000000000000000000000000D1
:1001200000000000000000000000000000000000CF
:10013000000011100F00000000000000000000008F
:10014000000000000000000000000000010210207C
:1001500020080810204010204080020102010804FD
:100160000201010204081020408080402010080491
:1001700002018004020180402010080402010804EA
:10018000020101020408102040800102040810202E
:100190004080050505050705080808080202020257
:1001A0000A0A080804040404010101010101010113
:1001B0000303030303030303040707070C0C0C0CDE
:1001C0000C0C0C0C020202020606060606060606C7
:1001D0000B0B0B0B0B0B0B0B000022002500280058
:1001E0002B002E003100340002010000050108013F
:1001F0000B0100002100240027002A002D00300000
:10020000330001010000040107010A010C9460148D
:100210000C94A4140C94E7010C9489070C94D90352
:100220000C9483140C94B9060C94E2030C94370FCD
:100230000C94B7100C949A0D0C94FF020C94BE0B06
:100240000C9410050C9415050C94DC030C940A0511
:100250000C9464140C9430020C947F140C943302AC
:100260000C9489140C94400E0C94600A0C942D028A
:100270000C949F140C9449030C946D140C94610617
:100280000C949D080C94F9020C94860F0C949B140A
:100290000C94490F0C9497140C9412160C94640F40
:1002A0000C94350A0C9439020C9466090C944F0393
:1002B0000C9418160C94910F0C94C5050C94FC0228
:1002C0000C94F10E0C9491130C94A3080C940D054E
:1002D0000C944C030C946A140C9455030C947114F4
:1002E0000C94C40B0C94C5010C9493050C9443031B
:1002F0000C948D140C941B050C9446030C94D6039B
:100300000C94BF060C9455120C94BF050C94E41485
:100310000C9491140C94270B0C9475140C947B146E
:10032000400E551211241FBECFEFD1E2DEBFCDBF6C
:1003300000E00CBF13E0A0E0B2E0E4EAF0E300E08C
:100340000BBF02C007900D92AC3FB107D9F71BE07D
:10035000ACEFB3E001C01D92A238B107E1F713E0A2
:10036000C4E2D3E000E006C022970109FE010BBF02
:100370000E943418C032D10780E00807A9F70E9414
:100380002A0F0C9450180C940000FC01DB018281B0
:100390008C93838111968C931197848112968C9300
:1003A0001297858113968C931397868114968C935C
:1003B0001497878115968C931597808516968C9344
:1003C0001697818517968C9388E090E00895FC013C
:1003D000DB014C9150E060E070E042835383648322
:1003E000758311968C911197582B428353836483A4
:1003F000758312968C911297682B42835383648382
:10040000758313968C911397782B4283538364835F
:10041000758314964C91149750E060E070E0468329
:1004200057836087718715968C911597582B468353
:1004300057836087718716968C911697682B468331
:1004400057836087718717968C91782B46835783E3
:100450006087718788E090E008958AE092E00895CF
:1004600088E192E00895A0E0B0E0E9E3F2E00C94C6
:10047000A517FC01DB018C9190E093838283119698
:100480002C911197922B9383828312964D915D91BB
:100490006D917C9115975D0186E0A80EB11C8A01D3
:1004A0009B010A5F1F4F2F4F3F4F6501CA1ADB0A9E
:1004B000E12CF12CC016D106E206F30640F4E5016A
:1004C000F9905E01CE010297EC01F882EECFED01CA
:1004D000C40FD51F1D82CD01059695838483ED0140
:1004E000C40FD51FCE80DF80E884F984465F5F4F5C
:1004F0003D01640E751E8A01222717FD2095322FBB
:100500000C0D1D1D2E1D3F1D43018A1A9B0AA12C97
:10051000B12C80169106A206B30640F4E30169915E
:100520003E01CE010297EC016883EECFC40ED51ECA
:100530009D012C0D3D1DC9010197EC011882415010
:1005400051094A0F5B1F57834683E90108811981CE
:100550002A813B81D4E0CD0ED11C3D016C0C7D1C69
:10056000A601662757FD6095762F400F511F621F29
:10057000731F43018A1A9B0AA12CB12C841695067D
:10058000A606B70640F4E301F9903E01CE010297BA
:10059000EC01F882EECF0C0D1D1D9D01200F311FC7
:1005A000C9010197EC011882D1E0CD1AD108CA0E19
:1005B000DB1ED186C086D90111968C9111971296B7
:1005C0004C91129750E060E070E0BA015527442743
:1005D000582B8C91482B13968C91782B42875387FC
:1005E00064877587C8010496CDB7DEB7EEE00C943A
:1005F000C11789E392E0089582E592E00895AF92F1
:10060000BF92CF92DF92EF92FF921F93CF93DF932F
:100610009C01FB018081D90112968C93818192818A
:10062000A381B4815B01C5E0AC0EB11CAC01BD017E
:100630004B5F5F4F6F4F7F4F6501CE1ADF0AE12C92
:10064000F12CC416D506E606F70650F4E501D9905C
:100650005E017E01D2E0ED1AF108E701D882ECCF0D
:10066000EF01C80FD91F1C823496E901FC83EB838C
:100670000596DF91CF911F91FF90EF90DF90CF9083
:10068000BF90AF90089583E792E0089586E892E0E6
:1006900008958DE793E0089587EA92E00895A0E039
:1006A000B0E0E5E5F3E00C94AB178C01EB01888139
:1006B00090E0A0E0B0E0F80182839383A483B58347
:1006C0002981922B82839383A483B5832A81A22BD1
:1006D00082839383A483B5832B81B22B82839383FC
:1006E000A483B5838C8190E0A0E0B0E086839783FB
:1006F000A087B1872D81922B86839783A087B187AE
:100700002E81A22B86839783A087B1872F81B22B5E
:1007100086839783A087B187488550E060E070E0CA
:1007200042875387648775878985582B428753870B
:10073000648775878A85682B4287538764877587A6
:100740008B85782B42875387648775878C859D8539
:10075000AE85BF859E01205F3F4FAC01BD01405F6C
:100760005F4F6F4F7F4F6901CC1ADD0AE12CF12CEE
:10077000C416D506E606F70650F4F901D1909F019C
:100780007F01F2E0EF1AF108F701D082ECCF9E0171
:10079000280F391FF90117862F96F801D787C687CA
:1007A0004096CDB7DEB7E8E00C94C71788EC92E02E
:1007B000089588ED92E00895A0E0B0E0E2EEF3E065
:1007C0000C94A817EC018B0102960E944F03DC01E8
:1007D000F801E80FF91F218130E040E050E060E0CF
:1007E00070E080E090E008E00E94DE17122F932E68
:1007F0005A016B017C01228130E040E050E060E072
:1008000070E080E090E000E10E94DE17122B932A56
:10081000A42AB52AC62AD72AE82AF92A8081182BC1
:10082000238130E040E050E060E070E080E090E064
:1008300008E10E94DE17122B932AA42AB52AC62AA1
:10084000D72AE82AF92A248130E040E050E060E02D
:1008500070E080E090E000E20E94DE17122B932A05
:10086000A42AB52AC62AD72AE82AF92A258130E0FF
:1008700040E050E060E070E080E090E008E20E943C
:10088000DE17122B932AA42AB52AC62AD72AE82AC9
:10089000F92A268130E040E050E060E070E080E03E
:1008A00090E000E30E94DE17122B932AA42AB52AB7
:1008B000C62AD72AE82AF92A278130E040E050E00A
:1008C00060E070E080E090E008E30E94DE17122B09
:1008D000932AA42AB52AC62AD72AE82AF92A1A8BE3
:1008E0009B8AAC8ABD8ACE8ADF8AE88EF98E218502
:1008F00030E040E050E060E070E080E090E008E050
:100900000E94DE17122F932E5A016B017C01228563
:1009100030E040E050E060E070E080E090E000E136
:100920000E94DE17122B932AA42AB52AC62AD72A98
:10093000E82AF92A8085182B238530E040E050E032
:1009400060E070E080E090E008E10E94DE17122B8A
:10095000932AA42AB52AC62AD72AE82AF92A24855E
:1009600030E040E050E060E070E080E090E000E2E5
:100970000E94DE17122B932AA42AB52AC62AD72A48
:10098000E82AF92A258530E040E050E060E070E098
:1009900080E090E008E20E94DE17122B932AA42A3E
:1009A000B52AC62AD72AE82AF92A268530E040E067
:1009B00050E060E070E080E090E000E30E94DE172D
:1009C000122B932AA42AB52AC62AD72AE82AF92A5A
:1009D000278530E040E050E060E070E080E090E0AB
:1009E00008E30E94DE17122B932AA42AB52AC62AEE
:1009F000D72AE82AF92A1A8F9B8EAC8EBD8ECE8E0E
:100A0000DF8EE8A2F9A2CD014096CDB7DEB7EBE0CC
:100A10000C94C41789EF92E0089586E193E008955D
:100A20008E579B4FFC0180810895A0E0B0E0EBE180
:100A3000F5E00C94A917EC017B018A81DB018C9312
:100A40008B8111968C93EC81FD81DF010D9000204C
:100A5000E9F7CD0101976C01CE1ADF0AC601A0E0CB
:100A6000B0E0FB0182839383A483B5836C817D8195
:100A7000A601C70106960E944718EE81FF81DF019B
:100A80000D900020E9F7CD0101975C01AE1ABF0A75
:100A9000F701EC0DFD1D850120E030E00683178392
:100AA000208731879AE0C90ED11C6E817F81A50114
:100AB000C7018C0D9D1D0E944718CA0CDB1CE885E0
:100AC000F985DF010D900020E9F7CD0101975C0168
:100AD000AE1ABF0AF701EC0DFD1D850120E030E0E4
:100AE000008311832283338394E0C90ED11C68856F
:100AF0007985A501C7018C0D9D1D0E944718AC0C7E
:100B0000BD1C3A852B859C858D85F701EA0DFB1D63
:100B10003083218392838383C5010496CDB7DEB7EA
:100B2000EAE00C94C5170F931F93CF93DF93DC017A
:100B3000FB0112968C911297808313968D919C9154
:100B40001497EC0109900020E9F72197C81BD90BF5
:100B50008E0120E030E001831283238334831396D7
:100B60006D917C911497AE01CF0105960E944718B4
:100B7000CE010596DF91CF911F910F910895A0E0CE
:100B8000B0E0E5ECF5E00C94AA17EC017B018A815A
:100B9000DB018C9311961C92119712961C9212975E
:100BA00013961C92FB01379640E024E030E05A8116
:100BB000C90104964517F0F4AF81B88524E0429F3F
:100BC000A00DB11D11246C9111965C911197129694
:100BD0003C91129713962C91DF0113976C93DF01D0
:100BE00012975C93DF0111973C9320839C014F5F28
:100BF0003496DDCF4985F701E20FF31F4083118260
:100C00001282138220E03985F701E80FF91F04965C
:100C10002317B0F4AE85BF8534E0239FA00DB11D2E
:100C200011246C9111965C91119712964C91129728
:100C300013963C9160835183428333832F5FE3CFCC
:100C400028892083118212821382B12C2889B2163E
:100C500098F54B2D50E0440F551FEB89FC89E40FAC
:100C6000F51F0190F081E02DDF010D900020E9F7E4
:100C70009D01215031096901CE1ADF0AF701E80F01
:100C8000F91F860120E030E0008311832283338343
:100C90008C010C5F1F4FEB89FC89E40FF51F60810D
:100CA0007181A601C701800F911F0E944718C601DC
:100CB000800F911FB394CACFCDB7DEB7E9E00C9493
:100CC000C6170F931F93CF93DF93DC01FB0112969E
:100CD0008C911297808313968C911397818314962D
:100CE0008C911497828315968C9115978383169611
:100CF0008C911697848317968C91179785831896F5
:100D00008C911897868319968C91199787831A96D8
:100D10008C911A9780871B968C911B9781871C96C4
:100D20008C911C9782871D968C911D9783871E96A8
:100D30008D919C911F97EC0109900020E9F7219774
:100D4000C81BD90B8E0120E030E004871587268769
:100D500037871E966D917C911F97AE01CF0140960B
:100D60000E944718CE014096DF91CF911F910F91BD
:100D70000895A0E0B0E0EFEBF6E00C94A717EC01CB
:100D80008B0102960E946106DC01FA888B889C88A0
:100D9000AD88BE88CF88D88CE98CF801E80FF91FA0
:100DA000F0822F2D382D492D5A2D6B2D7C2D8D2D18
:100DB0009E2D08E00E94F91721832F2D382D492DF3
:100DC0005A2D6B2D7C2D8D2D9E2D00E10E94F91743
:100DD00022832F2D382D492D5A2D6B2D7C2D8D2DB5
:100DE0009E2D08E10E94F91723832F2D382D492DC0
:100DF0005A2D6B2D7C2D8D2D9E2D00E20E94F91712
:100E000024832F2D382D492D5A2D6B2D7C2D8D2D82
:100E10009E2D08E20E94F91725832F2D382D492D8C
:100E20005A2D6B2D7C2D8D2D9E2D00E30E94F917E0
:100E300026832F2D382D492D5A2D6B2D7C2D8D2D50
:100E40009E2D08E30E94F91727831A8DAB8CBC8C6A
:100E5000CD8CDE8CEF8CF8A0C9A11087212F3A2D04
:100E60004B2D5C2D6D2D7E2D8F2D9C2F08E00E942B
:100E7000F9172187212F3A2D4B2D5C2D6D2D7E2DBD
:100E80008F2D9C2F00E10E94F9172287212F3A2DE8
:100E90004B2D5C2D6D2D7E2D8F2D9C2F08E10E94FA
:100EA000F9172387212F3A2D4B2D5C2D6D2D7E2D8B
:100EB0008F2D9C2F00E20E94F9172487212F3A2DB5
:100EC0004B2D5C2D6D2D7E2D8F2D9C2F08E20E94C9
:100ED000F9172587212F3A2D4B2D5C2D6D2D7E2D59
:100EE0008F2D9C2F00E30E94F9172687212F3A2D82
:100EF0004B2D5C2D6D2D7E2D8F2D9C2F08E30E9498
:100F0000F9172787CD014096CDB7DEB7ECE00C94FA
:100F1000C3174F925F927F928F929F92AF92BF9230
:100F2000CF92DF92EF92FF920F931F93CF93DF93B5
:100F3000EC018B01DB01FC908A818F1550F4B4E049
:100F4000FB9EB00111248F8198850E948B13988796
:100F50008F83FA82F8013796F12C44E050E09E012D
:100F60002D5F3F4F8A81BA016C5F7F4F6B01F8168E
:100F700070F5408150E060E070E0742F66275527DF
:100F80004427DF0113978C91482BDF0112978C9136
:100F9000582BDF0111978C91682B4B835C836D83F9
:100FA0007E83A6016F81788584E0F89E600D711DB7
:100FB0001124D9018D909D90AD90BC90DB018D9254
:100FC0009D92AD92BC921397F3943496CBCFF801D7
:100FD000E40FF51FF08089858F1550F484E0F89EAA
:100FE000B00111248E859F850E948B139F878E8769
:100FF0009601F98680E0FE013A969985D801A20F04
:10100000B31FA9014C5F5F4F6A01891748F511961C
:101010009C91119712964C91129750E060E070E00D
:10102000BA0155274427592B9C91492B13969C9123
:10103000792B4A875B876C877D879601AE85BF8554
:1010400094E0899FA00DB11D1124408151816281DE
:1010500073814D935D936D937C9313978F5FCDCF89
:10106000FC9088898F1550F46F2D70E0660F771F04
:101070008B899C890E948B139C8B8B8BC601F88A71
:10108000712C2E0151E1450E511C2889721608F071
:1010900044C0F801E80FF91FC080D180E280F380DE
:1010A0000496F801E80FF91FAC01662757FD60951B
:1010B000762F4C0D5D1D6E1D7F1D9F01201B310B7A
:1010C0004901A12CB12C84169506A606B70638F462
:1010D000B1909F0122503109D901BC92EECFC80EC8
:1010E000D91EF801EC0DFD1D319710829C01215095
:1010F0003109200F311F3A8B298BC6013B892C897E
:10110000E32FF22FE70DF11DE70DF11DD2012D9117
:101110003C91318320837394B8CFDF91CF911F919D
:101120000F91FF90EF90DF90CF90BF90AF909F9086
:101130008F907F905F904F900895A5E0B0E0E3EA34
:10114000F8E00C94A9178C016B01643671053CF032
:10115000FC01EE57FB4F8081882309F485C0DA013A
:10116000ED91FC910190F081E02DB801655E7D4F1D
:10117000CA0119957C015801BCEEAB1ABDEFBB0A40
:101180002FEFF50120832EEFF801EB5EFD4F20835A
:10119000F801EA5EFD4F8083F801E95EFD4F908320
:1011A000890F8095F801E85EFD4F8083F801E75EC6
:1011B000FD4FC082F801E65EFD4FD08285E090E0F1
:1011C00020E030E0A701495F5F4F8417950750F496
:1011D000F801E80FF91FEC5EFD4F6081260F311D0D
:1011E0000196F3CFF8E0EF0EF11C400F511FFA010A
:1011F000EC5EFD4F2095208321E0E21622E0F2060E
:10120000C8F46501C6018A199B098E159F0584F4EF
:10121000D80112968D919C911397F60161916F01FF
:10122000DC01ED91FC910190F081E02D1995EACF60
:10123000C7011CC085EB93E09A83898383E08B838D
:1012400087E393E09D838C83D801ED91FC9101901D
:10125000F081E02DAE014F5F5F4F67E070E0C801A5
:1012600019958FEF9FEF02C080E090E02596EAE0AD
:101270000C94C5178EBD0DB407FEFDCF8EB5089535
:101280008130910519F0029729F0089560E080916E
:10129000020203C060E0809100020E94DE14089503
:1012A0008130910519F0029729F0089561E080914D
:1012B000020203C061E0809100020E94DE140895E2
:1012C000A0E0B0E0E6E6F9E00C94AB177C010E94E8
:1012D000400980E60E943A0980E00E943A09D82F2E
:1012E00080E00E943A09C82E80E00E943A09082F47
:1012F00080E00E943A09C82FC7010E9450098D2F33
:1013000090E0A0E0B0E0982F882777276627D12CBF
:10131000E12CF12C7601DD24CC246C0D7D1D8E1D7D
:101320009F1D10E020E030E0322F212F102F0027EA
:10133000600F711F821F931F6C0F711D811D911D06
:10134000CDB7DEB7E8E00C94C717CF93DF930E94C8
:10135000130F6AE070E080E090E00E948A15C2E01E
:10136000D2E060E088810E94DE1488E80E943A0999
:1013700083E00E943A0961E088810E94DE14C0E0A7
:10138000D2E060E088810E94DE1488E80E943A0979
:1013900083E00E943A0961E088810E94DE14DF91B7
:1013A000CF91089540912C0450912D0460912E040A
:1013B00070912F0480912A0490912B040E94D411E3
:1013C0001092A1081092A0081092A3081092A208EF
:1013D0001092A7081092A6081092A5081092A408CF
:1013E000ECE3F8E080E090E021913191232BB1F41F
:1013F000FC01EE0FFF1FE45CF74F2CEF33E031836D
:10140000208383589F4F909301048093000488E2C7
:1014100094E0909303048093020404C00196893100
:10142000910511F761E0809102020E94A51461E02C
:10143000809100020E94A51461E0809102020E9446
:10144000DE1461E0809100020E94DE140E94A50972
:1014500064E670E080E090E00E948A150895AAE0BA
:10146000B0E0E5E3FAE00C94AF178C018DE993E06E
:101470009A8389831B821C821D821E821F8218868A
:1014800019861A86D801ED91FC910190F081E02D2A
:10149000AE014F5F5F4F6AE070E0C80119950E948E
:1014A0005B15F80160877187828793872A96E4E04D
:1014B0000C94CB17AEE0B0E0E0E6FAE00C94A31792
:1014C0008C0189EA93E09A8389831C821B828FE6D0
:1014D00093E09E838D8398878F839A8789871B8665
:1014E0001C861D861E86580182E3A80EB11C780159
:1014F000412C72E0572E612C712C6701ACEECA1A98
:10150000ABEFDA0AD601ED91FC913097B9F1848105
:1015100095819C838B83808191819E838D83828141
:101520009381DC01ED91FC910480F581E02D19950A
:1015300098878F83D601ED91FC9182819381DC01A4
:10154000ED91FC910680F781E02D19959A878987A6
:101550004B865C866D867E86F80180819181F601DE
:10156000A081B18118966D917C911997DC01ED9164
:10157000FC91AE014F5F5F4FC8011995B2E0EB0ED1
:10158000F11CEA14FB0409F0B8CF7801412C62E0A9
:10159000562E612C712C6701EAEBCE1AEBEFDE0AB6
:1015A000F601A081B1811097E1F112968D919C9185
:1015B00013979C838B8314968D919C9115979E8392
:1015C0008D83ED91FC9111970480F581E02DCD0183
:1015D000199598878F83D6018D919C91DC01ED91AF
:1015E000FC910680F781E02D19959A8789874B86B3
:1015F0005C866D867E86D801ED91FC91808091801D
:10160000F60180819181DC01ED91FC910280F381F2
:10161000E02D1995AE014F5F5F4FBC01C801F40189
:101620001995F2E0EF0EF11CEA14FB0409F0B3CFB8
:10163000F801EE57FB4F81E080832E96E0E10C9499
:10164000BF17AAE0B0E0E7E2FBE00C94A7178C011B
:101650005B018DE993E09A8389831B821C821D8242
:101660001E821F82188619861A860E945B156B01DE
:101670007C01F80180859185A285B385C81AD90AB5
:10168000EA0AFB0AB501CE0101960E94E701E8EEE5
:101690008E2EE3E09E2EA12CB12CC701B601A50130
:1016A00094010E947F1769017A019B01AC018B8133
:1016B0009C81AD81BE818C0D9D1DAE1DBF1D8B8398
:1016C0009C83AD83BE8360E472E48FE090E00E946F
:1016D0005B17CF80D884E984FA84C60ED71EE81E33
:1016E000F91ECF82D886E986FA860E945B15CB80E8
:1016F000DC80ED80FE80F1E0CF1AD108E108F1082E
:10170000A50194010E947F1749015A019B01AC0178
:10171000C818D908EA08FB08F801C486D586E68609
:10172000F786CF80D884E984FA84F6E3DF1AF5E6F9
:10173000EF0AF4ECFF0A60E472E48FE090E00E94AC
:101740005B17C61AD70AE80AF90AF801C08AD18AD3
:10175000E28AF38AB801605F7F4FC8010C960E944D
:10176000EB0E0E945B15F801E957FB4F6083718314
:10177000828393832A96ECE00C94C317A0E1B0E037
:10178000E4ECFBE00C94A1174C010E945B156B018B
:101790007C01940129573B4F3E832D83F9018081C1
:1017A0009181A281B381A7019601281B390B4A0BB5
:1017B0005B0BDA01C901893F9A42A105B10520F00E
:1017C000F401EE57FB4F1082A40148585B4F588B31
:1017D0004F87DA018D919C91892B79F0F401E557BF
:1017E000FB4F80819181A281B3818C159D05AE054F
:1017F000BF0518F4FA01118210823401F0E86F1A63
:10180000FBEF7F0A940124583B4F3A832983A401BC
:101810004E575B4F58874F83940120573B4F3C876F
:101820002B87A40141575B4F5E874D878401065883
:101830001B4F1601270154E1250E311C411C511C80
:10184000540184E1A80EB11C940122583B4F3C8303
:101850002B83A40145575B4F5A874987D4011296C1
:101860008D919C911397DC01ED91FC910680F7819D
:10187000E02D19959C0197FD2DC1F3018081918187
:10188000820F931F91838083AF85B8894D915C91BE
:1018900047305105E1F4EB81FC8180819181AC01FD
:1018A0004F5F5F4F51834083F401E80FF91F248B92
:1018B000D8018D919C91119701978D939C93892BC1
:1018C00009F0BECF28E030E0EF85F88987C04115E8
:1018D000510519F52F3F310569F481E090E0AF859E
:1018E000B8898D939C93E985FA8520823182428262
:1018F0005382B4CF0E945B156C197D098E099F0934
:10190000663071058105910508F49ACFF401EE5710
:10191000FB4F10828EEF9FEF03C14130510599F4C8
:101920002E3F310519F482E090E02FC0EF85F88951
:1019300011821082AF81B8858C91811181CFC40151
:101940000E942F0A8BCF4230510589F4F801318370
:101950002083AB81BC811D921C9283E090E0EF85D7
:10196000F88991838083D3012D933C9377CF4330C3
:10197000510581F4322F2227F80180819181820F55
:10198000931F9183808384E090E0AF85B8898D9325
:101990009C9364CF4430510599F460E071E00E945B
:1019A0006B178F3F910539F485E090E0EF85F8895A
:1019B0009183808353CFAF85B8891D921C924ECFFF
:1019C0004530510571F4E981FA813183208386E045
:1019D00090E0AF85B8898D939C93F3013183208388
:1019E0003DCF46305105D1F4322F2227A981BA814B
:1019F0008D919C911197820F931F8D939C9327E05B
:101A000030E0EF85F88931832083D8018D919C9156
:101A1000892B09F015CF28E030E0E0CF48305105A0
:101A200009F00ECFAF85B8891D921C9260E071E07D
:101A30000E946B178F3F910509F002CFA981BA81EF
:101A4000ED91FC913097B1F4C4010E942F0AC401BA
:101A50000E945A0AF401ED57FB4FC082D182E28204
:101A6000F382ED81FE81C082D182E282F3828FEF28
:101A70009FEF56C0EA30F10529F4B501C4010E9478
:101A8000210BECCEE630F10551F4B5018B859C8538
:101A90000E94890781E0AD85BE858C93DFCEEB3057
:101AA000F10521F4EF81F8851082D8CEE154FE4F84
:101AB000EE0FFF1FE80DF91D80819181009709F459
:101AC000BFCEDC01ED91FC910190F081E02DB501DC
:101AD0001995C4CEF401EE57FB4F80818823F1F0B5
:101AE00084010D571B4FF80180819181A281B38140
:101AF000A7019601281B390B4A0B5B0BDA01C901C0
:101B0000853C9940A105B10548F0C4010E942F0A07
:101B1000D801CD92DD92ED92FC92139780E090E097
:101B20006096E2E10C94BD17A0E1B0E0EAE9FDE0C7
:101B30000C94A31781E090E00E9460096B017C0186
:101B400082E090E00E9460094B015C010E945B15FD
:101B500028EE33E040E050E00E947F1729013A016F
:101B60009B01AC018091340490913504A09136041E
:101B7000B0913704840D951DA61DB71D89879A87DE
:101B8000AB87BC8760E472E48FE090E00E945B1753
:101B9000009138041091390420913A0430913B04AB
:101BA000600F711F821F931F6D877E878F87988BB1
:101BB000BE01635F7F4FCE0109960E94EB0E88E065
:101BC000FE013996DE01119601900D928A95E1F79A
:101BD00088E0FE013196DE01199601900D928A95FA
:101BE000E1F788E0FE013996AEE0B4E001900D9295
:101BF0008A95E1F7B701A601770F440B542FBA017C
:101C0000E8E1F4E0C082D182E282F382448345833A
:101C10004683478388279927DC0188199909AA09EF
:101C2000BB09AC01BD01770F440B542FBA01E0E2B0
:101C3000F4E080839183A283B38344834583468306
:101C400047838091020490910304DC01ED91FC91A3
:101C500060910004709101040190F081E02D46E054
:101C600054E0199562E370E080E090E00E948A15EC
:101C700088E294E00E94BE0B6096E0E10C94BF17EE
:101C800085EE93E0909329048093280483E399E000
:101C900090932B0480932A0480E091EEA0E0B0E0C2
:101CA00080932C0490932D04A0932E04B0932F04C2
:101CB0001092AA0881EC93E09093B9088093B80839
:101CC0001092BA081092C0081092BF081092C10872
:101CD0001092C7081092C6081092C8081092CC083B
:101CE0001092CB08ECE3F8E01192119288E0EE3606
:101CF000F807D1F7EEE6F8E01192119288E0E03AA9
:101D0000F807D1F7ECE3F4E0119286E0EC33F80742
:101D1000D9F7ECE3F6E0119288E0EC33F807D9F755
:101D200089ED93E090930704809306048DEC93E093
:101D3000909309048093080410920A0410920B04F3
:101D400010920C0410920D0410920E0410920F04C5
:101D500010921004109211041092120410921304A5
:101D600010921404109215048FE693E090931704D8
:101D700080931604109218041092190410921A04F9
:101D800010921B0410921C0410921D0410921E0449
:101D900010921F0410922004109221041092220429
:101DA0001092230410922404109225041092260409
:101DB0001092270480E793E09093FD038093FC0347
:101DC00086E094E09093FF038093FE031092050455
:101DD000109204040895A0E0B0E0E1EFFEE00C945E
:101DE000AB178C01EB01688179818A819B8120E0AE
:101DF0003AEC4AE95BE30E947F17F801C080D1808A
:101E0000E280F380C20ED31EE41EF51EC082D18292
:101E1000E282F382688379838A839B83CDB7DEB7BE
:101E2000E8E00C94C71761E085E30E94DE1461E0EE
:101E300085E30E94A5148CB580618CBD8CB580644F
:101E40008CBD61E084E30E94A51461E083E30E94FD
:101E5000A51408950E94B0150E94D209C7EBD0E1E5
:101E60000E94940D2097E1F30E94B710F9CFFC0176
:101E700024853585F901E05CFF4F80819181F9016E
:101E8000EE5BFF4F20813181821B930B8F7399276B
:101E90000895FC0184859585FC01E05CFF4F40813D
:101EA0005181FC01EE5BFF4F2081318142175307C6
:101EB00041F00190F081E02DE80FF91F808190E062
:101EC00008958FEF9FEF0895FC0184859585FC01AF
:101ED000E05CFF4F40815181FC01EE5BFF4F2081B0
:101EE00031814217530779F0A081B181A80FB91F42
:101EF0008C91208131812F5F3F4F2F7333273183A6
:101F0000208390E008958FEF9FEF0895FC0181A159
:101F1000882329F0A489B5898C9186FFFBCF11A273
:101F20000895CF93DF93FC0126853785D901A05C06
:101F3000BF4F8D919C91119701968F739927E9015D
:101F4000CE5BDF4F4881598184179507D9F30D90F7
:101F5000BC91A02DA20FB31F6C93A685B785A05C82
:101F6000BF4F11969C938E93A689B7892C9181E0DF
:101F700090E0078C02C0880F991F0A94E2F7282B83
:101F80002C9381E081A30488F589E02D8081806411
:101F9000808381E090E0DF91CF910895FB01E05CC8
:101FA000FF4F208131812F5F3F4F2F733327DB019C
:101FB000AE5BBF4F4D915C912417350739F0A0817E
:101FC000B181A60FB71F8C933183208308950895A4
:101FD0001F920F920FB60F9211240BB60F922F93F0
:101FE0003F934F935F936F937F938F939F93AF93A1
:101FF000BF93EF93FF938091C00082FD07C0809153
:10200000C60061E37BE00E94CE0F02C08091C60053
:10201000FF91EF91BF91AF919F918F917F916F91C0
:102020005F914F913F912F910F900BBE0F900FBE7C
:102030000F901F90189508951F920F920FB60F9250
:1020400011240BB60F922F933F934F935F936F938F
:102050007F938F939F93AF93BF93EF93FF93809161
:10206000C80082FD07C08091CE0069EA7AE00E9434
:10207000CE0F02C08091CE00FF91EF91BF91AF9142
:102080009F918F917F916F915F914F913F912F9190
:102090000F900BBE0F900FBE0F901F9018950895D4
:1020A0001F920F920FB60F9211240BB60F922F931F
:1020B0003F934F935F936F937F938F939F93AF93D0
:1020C000BF93EF93FF938091D00082FD07C0809172
:1020D000D60061E27AE00E94CE0F02C08091D60065
:1020E000FF91EF91BF91AF919F918F917F916F91F0
:1020F0005F914F913F912F910F900BBE0F900FBEAC
:102100000F901F90189508951F920F920FB60F927F
:1021100011240BB60F922F933F934F935F936F93BE
:102120007F938F939F93AF93BF93EF93FF93809190
:10213000300182FD07C08091360169E979E00E9493
:10214000CE0F02C080913601FF91EF91BF91AF9108
:102150009F918F917F916F915F914F913F912F91BF
:102160000F900BBE0F900FBE0F901F90189583E33A
:1021700099E00E94370F892B11F00E94E70F81E14F
:1021800099E00E94370F892B11F00E941B108FEEEF
:1021900098E00E94370F892B11F00E944F108DECB0
:1021A00098E00E94370F892B11F00E948310089548
:1021B0001F920F920FB60F9211240BB60F922F930E
:1021C0003F938F939F93EF93FF9320912D0B30912B
:1021D0002E0B80912F0B9091300B2817390731F47B
:1021E0008091C1008F7D8093C10014C0E0912F0BBE
:1021F000F091300BE351F54F208180912F0B90919E
:10220000300B01968F7399279093300B80932F0B8F
:102210002093C600FF91EF919F918F913F912F9155
:102220000F900BBE0F900FBE0F901F9018951F922E
:102230000F920FB60F9211240BB60F922F933F936C
:102240008F939F93EF93FF932091A50A3091A60A55
:102250008091A70A9091A80A2817390731F4809134
:10226000C9008F7D8093C90014C0E091A70AF09146
:10227000A80AEB59F54F20818091A70A9091A80AEE
:1022800001968F7399279093A80A8093A70A2093A9
:10229000CE00FF91EF919F918F913F912F910F90E1
:1022A0000BBE0F900FBE0F901F9018951F920F92AC
:1022B0000FB60F9211240BB60F922F933F938F936B
:1022C0009F93EF93FF9320911D0A30911E0A8091F6
:1022D0001F0A9091200A2817390731F48091D10004
:1022E0008F7D8093D10014C0E0911F0AF091200AE5
:1022F000E352F64F208180911F0A9091200A0196A7
:102300008F7399279093200A80931F0A2093D600F9
:10231000FF91EF919F918F913F912F910F900BBE65
:102320000F900FBE0F901F9018951F920F920FB62F
:102330000F9211240BB60F922F933F938F939F937D
:10234000EF93FF9320919509309196098091970919
:10235000909198092817390731F4809131018F7DC8
:102360008093310114C0E0919709F0919809EB5ADC
:10237000F64F2081809197099091980901968F736B
:102380009927909398098093970920933601FF919C
:10239000EF919F918F913F912F910F900BBE0F90D6
:1023A0000FBE0F901F901895CF92DF92EF92FF9281
:1023B000CF93DF93EC016A017B01411581EE580751
:1023C00061057105F9F0EC89FD8981E090E008A0D4
:1023D00002C0880F991F0A94E2F7808360E079E0D9
:1023E0008DE390E0A70196010E947F1721503109EB
:1023F000410951095695479537952795211580E153
:10240000380798F0EC89FD89108260E874E88EE165
:1024100090E0A70196010E947F17215031094109E0
:1024200051095695479537952795E889F98930835D
:10243000EA89FB89208319A2EE89FF89408181E026
:1024400090E09C010C8C02C0220F331F0A94E2F72B
:10245000422B4083EE89FF8940819C010D8C02C094
:10246000220F331F0A94E2F7422B4083EE89FF8943
:1024700040819C010E8C02C0220F331F0A94E2F7A8
:10248000422B4083EE89FF8920810F8C02C0880F88
:10249000991F0A94E2F7809582238083DF91CF9180
:1024A000FF90EF90DF90CF900895CF931092360970
:1024B0001092350988EE93E0A0E0B0E080933709F0
:1024C00090933809A0933909B0933A092FEE33E07D
:1024D000309334092093330941E35BE05093400982
:1024E00040933F094DEE5AE0509342094093410911
:1024F00045EC50E0509344094093430944EC50E0CC
:10250000509346094093450940EC50E050934809E8
:102510004093470941EC50E050934A0940934909E0
:1025200042EC50E050934C0940934B0946EC50E08C
:1025300050934E0940934D09C4E0C0934F09F3E016
:10254000F0935009E7E0E093510975E07093520968
:1025500061E060935309109214091092130980935B
:10256000150990931609A0931709B0931809309391
:1025700012092093110949EA5AE050931E09409329
:102580001D0945E65AE05093200940931F094DEC80
:1025900050E050932209409321094CEC50E05093B5
:1025A00024094093230948EC50E0509326094093B6
:1025B000250949EC50E050932809409327094AEC3B
:1025C00050E050932A09409329094EEC50E0509373
:1025D0002C0940932B09C0932D09F0932E09E09309
:1025E0002F0970933009609331091092F20810920C
:1025F000F1088093F3089093F408A093F508B09342
:10260000F6083093F0082093EF0841E25AE0509327
:10261000FC084093FB084DED59E05093FE084093B1
:10262000FD0845ED50E0509300094093FF0844ED4C
:1026300050E0509302094093010940ED50E050935F
:1026400004094093030941ED50E05093060940937B
:10265000050942ED50E0509308094093070946ED03
:1026600050E050930A0940930909C0930B09F09375
:102670000C09E0930D0970930E0960930F091092F5
:10268000D0081092CF088093D1089093D208A093DD
:10269000D308B093D4083093CE082093CD0889E9AD
:1026A00099E09093DA088093D90885E599E09093B2
:1026B000DC088093DB0885E391E09093DE0880934B
:1026C000DD0884E391E09093E0088093DF0880E3E5
:1026D00091E09093E2088093E10881E391E0909388
:1026E000E4088093E30882E391E09093E608809306
:1026F000E50886E391E09093E8088093E708C093AB
:10270000E908F093EA08E093EB087093EC08609313
:10271000ED08CF910895A0E0B0E0E1E9F3E10C9479
:10272000A517EC01CB01209719F40E943416B8C00C
:10273000FE01E60FF71F9E0122503109E217F30751
:1027400008F4ACC0D9010D911C9111970617170719
:10275000B8F00530110508F49FC0A8014450510994
:102760004617570708F498C002501109061B170BAB
:10277000019311936D937C93CF010E94CC168CC072
:102780005B01A01AB10A4E01800E911EA091800B30
:10279000B091810B612C712C60E070E0109709F40E
:1027A00049C0A815B905C9F5ED90FC9011976701CE
:1027B00042E0C40ED11CCA14DB0478F147018A1828
:1027C0009B08640142E0C40ED11C1296BC90129783
:1027D0001396AC91B5E0CB16D10440F0B282A3833E
:1027E00091828082D9018D939C9309C00E5F1F4F07
:1027F0000E0D1F1DF90111830083EB2DFA2F6115BA
:10280000710531F0DB011396FC93EE93129744C0EF
:10281000F093810BE093800B3FC06D917C911197F9
:102820006616770608F43B01BD0112960D90BC9127
:10283000A02DB4CF60917E0B70917F0B6815790548
:10284000E9F468167906D0F440910402509105022B
:102850004115510541F44DB75EB760910802709182
:102860000902461B570BE417F507C0F4F0937F0BE2
:10287000E0937E0BF901918380830EC00E94341691
:102880007C01009759F0A801BE010E944718CE01B3
:102890000E94CC16C70104C0CE0102C080E090E0C7
:1028A000CDB7DEB7EEE00C94C11790E0FC01319794
:1028B000E131F10508F048C0EE58FF4F0C94D817ED
:1028C000809180008F7703C0809180008F7D8093FE
:1028D0008000089584B58F7702C084B58F7D84BD54
:1028E00008958091B0008F7703C08091B0008F7DF4
:1028F0008093B0000895809190008F7707C08091F9
:1029000090008F7D03C080919000877F809390001E
:1029100008958091A0008F7707C08091A0008F7DDF
:1029200003C08091A000877F8093A00008958091CC
:1029300020018F7707C0809120018F7D03C0809197
:102940002001877F809320010895CF93DF9390E04B
:10295000FC01E45BFE4F2491FC01EE56FE4F849196
:10296000882349F190E0880F991FFC01EE50FE4F3B
:10297000A591B49188529E4FFC01C591D4919FB707
:10298000611108C0F8948C91209582238C938881E2
:1029900082230AC0623051F4F8948C91322F309522
:1029A00083238C938881822B888304C0F8948C9134
:1029B000822B8C939FBFDF91CF910895A1E0B0E06F
:1029C000E4EEF4E10C94AF17282F30E0F901EA5F50
:1029D000FE4F8491F901E45BFE4F1491F901EE562C
:1029E000FE4F04910023C9F0882321F069830E94DF
:1029F00055146981E02FF0E0EE0FFF1FE852FE4F03
:102A0000A591B4919FB7F8948C91611103C0109572
:102A1000812301C0812B8C939FBF2196E4E00C940D
:102A2000CB171F920F920FB60F9211242F933F9343
:102A30008F939F93AF93BF938091760B9091770B79
:102A4000A091780BB091790B3091750B23E0230F97
:102A50002D3720F40196A11DB11D05C026E8230FD6
:102A60000296A11DB11D2093750B8093760B909358
:102A7000770BA093780BB093790B80917A0B9091A0
:102A80007B0BA0917C0BB0917D0B0196A11DB11D1C
:102A900080937A0B90937B0BA0937C0BB0937D0B70
:102AA000BF91AF919F918F913F912F910F900FBE4A
:102AB0000F901F9018952FB7F8946091760B709136
:102AC000770B8091780B9091790B2FBF08953FB7CA
:102AD000F89480917A0B90917B0BA0917C0BB09134
:102AE0007D0B26B5A89B05C02F3F19F00196A11DAF
:102AF000B11D3FBF6627782F892F9A2F620F711D56
:102B0000811D911D42E0660F771F881F991F4A950E
:102B1000D1F70895CF92DF92EF92FF92CF93DF9398
:102B20006B017C010E946715EB01C114D104E10423
:102B3000F10479F00E9467156C1B7D0B683E7340B1
:102B4000A0F381E0C81AD108E108F108C851DC4FB0
:102B5000ECCFDF91CF91FF90EF90DF90CF90089571
:102B6000789484B5826084BD84B5816084BD85B568
:102B7000826085BD85B5816085BDEEE6F0E080812F
:102B800081608083E1E8F0E0108280818260808350
:102B9000808181608083E0E8F0E0808181608083D3
:102BA000E1EBF0E0808184608083E0EBF0E0808105
:102BB00081608083E1E9F0E08081826080838081B0
:102BC00081608083E0E9F0E0808181608083E1EAD8
:102BD000F0E0808182608083808181608083E0EA90
:102BE000F0E0808181608083E1E2F1E080818260B9
:102BF0008083808181608083E0E2F1E08081816078
:102C00008083EAE7F0E08081846080838081826055
:102C1000808380818160808380818068808310923E
:102C2000C1000895A0E0B0E0E8E1F6E10C94AB1734
:102C30006C017A01EB01E60EF71E00E010E0CE1504
:102C4000DF0561F06991D601ED91FC910190F08171
:102C5000E02DC6011995080F191FF1CFC801CDB796
:102C6000DEB7E8E00C94C717CF93DF93823091056D
:102C700010F482E090E0E091800BF091810B20E075
:102C800030E0A0E0B0E0309739F140815181481741
:102C90005907B8F04817590771F48281938110974A
:102CA00029F013969C938E9312972CC09093810BCE
:102CB0008093800B27C02115310531F0421753074F
:102CC00018F0A901DB0101C0EF019A01BD01DF018C
:102CD0000280F381E02DD7CF21153105F9F0281BB3
:102CE000390B2430310580F48A819B81611571058F
:102CF00021F0FB019383828304C09093810B809326
:102D0000800BFE01329644C0FE01E20FF31F819357
:102D1000919322503109398328833AC020917E0B48
:102D200030917F0B232B41F4209106023091070252
:102D300030937F0B20937E0B20910402309105028B
:102D40002115310541F42DB73EB74091080250914D
:102D50000902241B350BE0917E0BF0917F0BE217EB
:102D6000F307A0F42E1B3F0B2817390778F0AC01AE
:102D70004E5F5F4F2417350748F04E0F5F1F50938B
:102D80007F0B40937E0B8193919302C0E0E0F0E0D3
:102D9000CF01DF91CF910895CF93DF93009709F48E
:102DA00087C0FC01329713821282C091800BD091B0
:102DB000810B209781F420813181280F391F809168
:102DC0007E0B90917F0B8217930779F5F0937F0B21
:102DD000E0937E0B6DC0DE0120E030E0AE17BF0750
:102DE00050F412964D915C9113979D014115510538
:102DF00009F1DA01F3CFB383A28340815181840FBB
:102E0000951F8A179B0771F48D919C911197840FE0
:102E1000951F02969183808312968D919C911397B2
:102E2000938382832115310529F4F093810BE0937C
:102E3000800B3EC0D9011396FC93EE9312974D91EF
:102E40005D91A40FB51FEA17FB0779F4808191818A
:102E5000840F951F0296D90111969C938E938281BF
:102E6000938113969C938E931297E0E0F0E08A8111
:102E70009B81009719F0FE01EC01F9CFCE0102967B
:102E800028813981820F931F20917E0B30917F0B17
:102E90002817390769F4309729F41092810B1092A2
:102EA000800B02C013821282D0937F0BC0937E0BE3
:102EB000DF91CF910895DB018F939F930E941518A6
:102EC000BF91AF91A29F800D911DA39F900DB29FC6
:102ED000900D1124089597FB072E16F4009407D047
:102EE00077FD09D00E94201807FC05D03EF490958C
:102EF00081959F4F0895709561957F4F0895A1E248
:102F00001A2EAA1BBB1BFD010DC0AA1FBB1FEE1F63
:102F1000FF1FA217B307E407F50720F0A21BB30BAE
:102F2000E40BF50B661F771F881F991F1A9469F72A
:102F300060957095809590959B01AC01BD01CF0186
:102F400008952F923F924F925F926F927F928F924D
:102F50009F92AF92BF92CF92DF92EF92FF920F9328
:102F60001F93CF93DF93CDB7DEB7CA1BDB0B0FB632
:102F7000F894DEBF0FBECDBF19942A8839884888DF
:102F80005F846E847D848C849B84AA84B984C88485
:102F9000DF80EE80FD800C811B81AA81B981CE0F7C
:102FA000D11D0FB6F894DEBF0FBECDBFED01089561
:102FB000EE0FFF1F0590F491E02D19940F93083048
:102FC00090F0982F872F762F652F542F432F322F75
:102FD00022270850F4CF220F331F441F551F661FAE
:102FE000771F881F991F0A95B2F70F91089597FBD5
:102FF00010F8169400080F93083098F00850232F0B
:10300000342F452F562F672F782F892F902DF4CFEF
:103010000594979587957795679557954795379533
:1030200027950A95AAF70F9108950E943818A59F31
:10303000900DB49F900DA49F800D911D11240895B3
:10304000AA1BBB1B51E107C0AA1FBB1FA617B707CE
:1030500010F0A61BB70B881F991F5A95A9F78095EA
:103060009095BC01CD0108950790F691E02D19943B
:10307000A29FB001B39FC001A39F700D811D1124B9
:10308000911DB29F700D811D1124911D0895FB01AA
:10309000DC0102C001900D9241505040D8F70895D4
:0430A000F894FFCFD2
:1030A40008000A000000820B80007374645F6D7373
:1030B40067732F54696D650063643731363663373F
:1030C4003463353532633331316662636332666546
:1030D400356137626332383900726F7373657269B0
:1030E400616C5F6D7367732F546F706963496E66AB
:1030F4006F0030616435316638386663343438398A
:103104003266386331303638343037373634363017
:10311400303500726F7373657269616C5F6D7367CC
:10312400732F4C6F6700313161626437333163321E
:10313400353933333236316364363138336264318E
:103144003264363239350039663065393862646143
:1031540036353938313938366464663533616661F9
:1031640037613430653439007374645F6D73677329
:103174002F48656164657200323137366465636176
:1031840065636263653738616263336239366566E5
:103194003034396661626564007065765F6D7367AB
:1031A400732F446F6C6C79456E636F6465725374EE
:1031B400616D7065640038633731383735313632C4
:1031C4006231626333653564656639353039356338
:1031D400373532616430004D65737361676520660D
:1031E400726F6D206465766963652064726F7070B8
:1031F40065643A206D657373616765206C617267FD
:103204006572207468616E206275666665722E0050
:10321400656E636F6465725F6461746100726F737D
:1032240073657269616C5F6D7367732F5265717535
:10323400657374506172616D0000000000C501E7A0
:10324400012D0230020000000015053302F902FCD2
:1032540002000000009305FF024303460300000040
:1032640000BF05890749034C030000000061064FB5
:1032740003D603D90300000000B906DC030A050DD8
:1032840005000000009D08BE0B1005000000009121
:0C3294000F1216370F640F490F860F0051
:00000001FF
